:1000000000000420750300005D0300005F03000092
:1000100061030000630300006503000000000000AE
:100020000000000000000000000000006703000066
:1000300069030000000000006B0300006D03000076
:100040006F0300006F030000FD140000991500000D
:100050006F0300006F0300006F0300006F030000D8
:100060006F0300006F0300006F0300006F030000C8
:100070006F0300006F0300006F0300006F030000B8
:100080006F0300006F0300006F0300006F030000A8
:100090006F0300006F0300006F0300006F03000098
:1000A0006F0300006F0300006F0300006F03000088
:1000B0006F0300006F03000000000000000000005C
:1000C0006F0300006F0300006F0300006F03000068
:1000D0006F0300006F0300006F0300006F03000058
:1000E0006F0300006F0300006F03000000000000BA
:1000F000000000006F030000000000006F0300001C
:1001000000000000000000000000000000000000EF
:1001100000000000000000000000000000000000DF
:1001200000000000000000000000000000000000CF
:1001300000000000000000000000000000000000BF
:1001400000000000000000000000000000000000AF
:10015000000000000000000000000000000000009F
:10016000000000000000000000000000000000008F
:10017000000000000000000000000000000000007F
:10018000000000000000000000000000000000006F
:10019000000000000000000000000000000000005F
:1001A000000000000000000000000000000000004F
:1001B000000000000000000000000000000000003F
:1001C000000000000000000000000000000000002F
:1001D000000000000000000000000000000000001F
:1001E000000000000000000000000000000000000F
:1001F00000000000000000000000000000000000FF
:10020000354936480A1A02D0072291438D463449AF
:1002100034480A1A06D00722914381F30988022242
:1002200082F3148830483149314A00F044F83148AB
:100230003149324A00F03FF831483249324A00F041
:100240003AF832483249334A00F035F832483349F7
:10025000334A00F030F833483349344A00F02BF881
:1002600033483449344A00F026F8344834490022EF
:1002700000F02CF833483449002200F027F83348C6
:100280003349091A082902DB002202604160314A21
:1002900090471F481F49884205D00268043003B4C4
:1002A000904703BCF7E700208646EC46002000217B
:1002B000294A9047FEE7884207D0521A05D00378B2
:1002C00001300B700131013AF9D17047884202D0F8
:1002D00002700130FAE770470000042000E00320BC
:1002E0000000042000000420A434000000000020CE
:1002F00034000020D0030000D00300005030000084
:10030000A434000000000020000000209C30000009
:100310009C3000009C3000009C3000009C300000AD
:100320009C3000009C3000009C300000A334000092
:10033000D8340000340000203400002034000020B5
:100340002409002024090020240900202409002079
:10035000242900209D030000C1230000FEE7FEE7E2
:10036000FEE7FEE7FEE7FEE7FEE7FEE7FEE7FEE765
:1003700000F002B8FFF7FCBF0F484FF007018843B9
:1003800085460E4880470E48016841F470010160BF
:10039000BFF34F8FBFF36F8FFFF732BF09480A4992
:1003A0000A4A884207D0521A05D0037801300B70F0
:1003B0000131013AF9D17047000004200D260000F8
:1003C00088ED00E09C3000000000002000000020CC
:1003D000F0B595B01D46164608460C4600F0ECFFF9
:1003E0001A9B0D93CDE9086500252B46082205A927
:1003F00020460A958DF82C500C9500F0FAFF079BCB
:100400000293069B03939DF814308DF8115003F06E
:100410000302012A1DD1BDF81420059DC3F3C203B8
:10042000C2F383168DF81030B20008230EA92046BF
:1004300000F0DFFFC5F3952508AB0093324602AB11
:100440000EA9284600F0ACFB204600F0B9FF15B01D
:10045000F0BD022AF8D1BDF81650C3F3C203C5F3AC
:1004600089158DF810300827082D2E4628BF08263C
:100470003B4632460EA9204600F0BBFFAD1B08AB41
:1004800002AA31460EA8374400F0EEFB002DEBD156
:10049000DAE7704707B5044B0093044A4023FFF79F
:1004A00097FF03B05DF804FB010500003500002054
:1004B00030B5104D0FCD89B06C460FC495E80F00D4
:1004C00084E80F004FF0FF330622CDE90023CDE989
:1004D000023309484FF0EB7300226946069300F09F
:1004E000CFFF08B100F01CFC044B00221A7009B0C9
:1004F00030BD00BF9C300000000000203400002010
:1005000038B50D4B0D4D002018700D4804782D5D49
:10051000D2B21C4665B1043001F0C4FC08B100F051
:10052000FFFB084B1A7812B12378002BFBD038BDA3
:100530000C3001F073FAF1E7750000201806002076
:10054000000000203400002008B50848084A03785D
:10055000D35C33B1043001F03FFCBDE80840FFF745
:10056000A7BF0C3001F006FAF7E700BF000000203B
:1005700018060020FFF79CBF08B5FFF7FBFF0448F3
:10058000042100F075FA034B01225A7108BD00BF27
:100590007830000014000020037813F0040216D015
:1005A00003F00303012B03D0022B09D00120704775
:1005B0000A6800880232C0F3831002440A60F5E73B
:1005C0000B684288023303EB92130B60EEE7104690
:1005D000704700002DE9F04F044685B0861C0020CE
:1005E0000F46154600F0F4FB454801683960D0E934
:1005F0000132134401335B1A824600F21C4700F5B6
:10060000836900F21448B3421BD30020002D72D03E
:1006100004F00F039B0143F0050363F30F00DAF8C6
:100620000020DAF808301340033316444AF8230058
:100630000020CAF8006000F0CDFB012005B0BDE845
:10064000F08F0121384600F0EAFB484600F0FFFB3E
:10065000404600F0FCFBDAF80400DAF808B000903D
:1006600000EA0B0003300AEB80006946FFF794FFB5
:10067000009B50BB0BEA03020AEB820203F1020C5F
:10068000D2680192013303EA0B0B0AEB8B0B02F0E9
:100690000302012ADBF80C10CDF800C023D0022A97
:1006A00016D08346404600F0D5FB10B1009BCAF837
:1006B00004305946384600F0B2FBDAE9012313440E
:1006C000DAF8002001339B1A9DE70BEA0300C9E723
:1006D000BDF80630C3F3891303334FEA114B0CEB1B
:1006E00093030093DEE7BDF80430C3F383134FEAAE
:1006F000114B6344F5E7A40544F006008FE700BF03
:10070000480100200B4B0C48FF2210B59A600022D4
:10071000C3F81824C3E90022C3F81424012283F883
:10072000202400F002FE044610B9044800F06BFEDD
:10073000204610BD4801002088300000F030000045
:1007400030B50A4C71B10A4A0A49121BD20800237B
:100750009A4201D1002030BD31F82350854202D0A9
:100760000133F5E7034654F83300F4E75030000056
:100770007830000000000020094B013903EBC00075
:10078000032909D8DFE801F00A02040604207047B3
:100790000079704740797047002070470220704709
:1007A00050300000034BD3E90030C31A584258417F
:1007B000704700BF480100202DE9F04385B0FFF7E6
:1007C000F1FF0646002840F0F5807B4DC5F818047F
:1007D000BFF34F8F6B68AC6800932340033305EB86
:1007E00083006946FFF7D8FE009B18B1D5F818249E
:1007F000002A5FD004EA0302991C013305EB820250
:10080000234005EB8303D268DB68029302F0030305
:10081000022B0192009160D1BDF806306748C3F306
:100820008917502FB84628BF4FF0500868F38F1330
:1008300008F10801ADF8063000F08FFD06460028EB
:1008400000F0A38000F0B8FD0023082201A9304683
:1008500000F0C5FD009924EA01020132B8EB820FD5
:100860004FEA820332D95FFA88F85BB32140DCB2E9
:10087000A8EB040803315FFA88F9A046504C05EB59
:10088000810108234246304600F0A9FD34B108F149
:1008900008034A462146304600F0A1FD009B03377D
:1008A00003EB97070097D5F81834002B49D1D5F8FA
:1008B000104459E02A689A428FD86A60304605B0E1
:1008C000BDE8F0833E491C469946DAE70C40E11C3E
:1008D0000823424605EB8101DDE7012B55D1BDF828
:1008E00004303648C3F38311062928BF062161F37B
:1008F000891302318900ADF8043000F02EFD064660
:10090000002842D000F058FD0023082201A93046FB
:1009100000F065FD0027BDF80420C2F38312BB0080
:10092000974203F10803BED200994A1C21400331CB
:10093000009205EB81010422304600F050FD0137A2
:10094000E9E7304600F03CFDFFF72CFF80F00100A6
:10095000C6B2B3E7E3685B7923B1236831461B680D
:1009600020469847E3681C68002CF3D1304600F01D
:1009700027FD204600F02CFAD5F818340BB9009B5F
:100980006B60002000F026FADEE7D5F8104454B979
:100990000C4B0D480D49C01AC008000440F002007D
:1009A00000F062F8D0E7236820469B689847E36828
:1009B0001C68ECE7002681E7480100208830000031
:1009C000540100205030000070300000D930000089
:1009D0002DE9F74F224D04460F46924601A9012208
:1009E0001846D5F808909B46FFF7F4FD20B3019E0A
:1009F0004FF00008B21CD84508EB020126D1194877
:100A0000002100F0E9F980F31000000440EA1440EE
:100A1000E400731C04F0380403EA090306EA09063B
:100A200044F0010405EB8303033644EA881444EAE6
:100A30008724D86045F8264095F820341BB1FFF78D
:100A4000BBFE0028FBD103B0BDE8F08F09EA01012D
:100A500005EB81015AF82830CB6008F10108CAE79C
:100A6000480100206405002000231A46FFF7B0BFAC
:100A700030B50F49D1F8102403460020144634B98C
:100A8000DC6820714AB9C1F81034226030BDE468D6
:100A90002579854206D02468F1E7D2681168216083
:100AA0001360F3E701300A28E8D14FF0FF30EDE79B
:100AB00048010020094A38B50123D2F8104482F8D1
:100AC00020341D4604B938BDE3685D7123682046B3
:100AD0005B689847E3681C68F4E700BF48010020A2
:100AE00007B503460846197A052911D05B7A2BB160
:100AF000094A0A49019000F007FA01980849019053
:100B000000F002FA019803B05DF804EB00F0F1B9CF
:100B1000002AF8D0F2E700BFFC30000001310000ED
:100B20001832000030B5C38885B004460D4633B195
:100B3000144A00921449154A284600F0E5F9217A32
:100B400005291DD0637A4BB1A088FFF715FE104B25
:100B5000104953F82020284600F0D6F9227A0E4B8F
:100B6000A08853F8222003920021FFF7E9FD039AA1
:100B70000A490346284605B0BDE8304000F0C4B934
:100B800005B030BDFC3000000C3100000431000025
:100B90008831000001310000AC3100002431000038
:100BA0002DE9F04385B01F460C9D002395F80C906D
:100BB0002B7306460C46904629463846FFF7B2FF8F
:100BC000B8F1060F09D8DFE808F00412181F28331F
:100BD00040003146284600F097F900222946384661
:100BE000FFF77EFF85F80C9005B0BDE8F083226822
:100BF0003146284600F088F9EFE7D4E90023314672
:100C0000284600F081F9E8E7A36800933146D4E96B
:100C10000023284600F078F9DFE7E3680193A36832
:100C200000933146D4E90023284600F06DF9D4E75B
:100C300023690293E3680193A36800933146D4E9E2
:100C40000023284600F060F9C7E76369039323692E
:100C50000293E3680193A36800933146D4E900232B
:100C6000284600F051F9B8E708292DE9F74F8046EA
:100C70000E4617461C463CD8002593F80C901D7371
:100C800019461046FFF74EFFDFF888A0DFF888B05E
:100C9000AE4231D918F805205946204600F034F903
:100CA0000135082DF4D11949194DDFF870A02046FF
:100CB00000F02AF94FF0000B5E4522D918F80B20FE
:100CC0007E2A05D81046019201F008FE019A00B96B
:100CD0002E225146204600F017F90BF1010BBBF113
:100CE000080FE9D1012221463846FFF7F9FE84F8C2
:100CF0000C9003B0BDE8F08F5146204600F004F997
:100D0000CEE72946204600F0FFF8E6E7383100003C
:100D100036310000343100002E3100003A3100003D
:100D20001FB50021039001AA44F20100CDE9011191
:100D300000F004F805B05DF804FB000010B572B6D1
:100D4000FFF7B8FEFFF738FD0028FBD1104B114C20
:100D50001149E41AE408240444F00100FFF784FE7A
:100D60000E4B1B68DB0700D500BE0D4944F00200A6
:100D7000FFF77AFEBFF34F8F0A490B4BCA6802F4A4
:100D8000E0621343CB60BFF34F8F00BFFDE700BFAE
:100D90005030000070300000C0310000F0ED00E085
:100DA000CC31000000ED00E00400FA0572B6024A02
:100DB000136801331360704704060020034A136868
:100DC000013B136003B962B6704700BF0406002000
:100DD000FFF7ECBFFFF7F2BF10B5034653E8000F73
:100DE0000A4643E8002494F0000FF7D110BD10B577
:100DF000034653E8002F42EA010043E8000494F060
:100E0000000FF6D110BD10B5034653E8000F00EAFD
:100E1000010243E8002494F0000FF6D110BD10B594
:100E2000034653E8002F02EB010043E8000494F06E
:100E3000000FF6D110BD10B5034653E8002FA2EB0A
:100E4000010043E8000494F0000FF6D110BD012129
:100E5000FFF7CDBF0021FFF7D6BF10B590B1D0E9A5
:100E6000012301689B1ADBB20A60013BDBB2FF2B56
:100E7000026802D10020107110BD11684C1C146072
:100E80000B70F2E70E20F7E738B504460020FFF7B5
:100E90009FFF226863681168994213D9481E106049
:100EA00011F8015CE368218A01FB0535A36811791B
:100EB0001B1ADBB2994200D213710020FFF78AFFA0
:100EC000284638BD0025F8E738B5054600200C4611
:100ED000FFF77EFF2A681368591C1160E968641ADD
:100EE000298AB4FBF1F41C70BDE838400020FFF7FC
:100EF00071BF826810B504462AB143690168006970
:100F000098470023A36010BD0EB403B5039921B127
:100F100004AB01AA019300F077F802B05DF804EB8E
:100F200003B070470A2938B504460D4602D10D2199
:100F3000FFF7F8FFA3682268591CA160D554D4E9D3
:100F400001329A4204D32046BDE83840FFF7D1BFB2
:100F500038BD00002DE9F84F9846DDE90A431546F3
:100F600082460F460A464FF00109AA420FD2C145F8
:100F700038BFC14613F0010B01D16CB90024012622
:100F8000B8F1010F1BD908F1FF386E43F8E709F1FA
:100F90000109B2FBF5F2E8E79B070ED5B8F1000FA7
:100FA0000CBF30262026A145E9D2013C31465046EF
:100FB000FFF7B8FF002CF6D1E0E72026F3E7B7FBF8
:100FC000F6F39D42E1D9DFF83C80B7FBF6F35046DB
:100FD00018F8031006FB1377FFF7A4FF3346AB4264
:100FE000B6FBF5F6F1D2BBF1000F02D00CB1A14572
:100FF00001D3BDE8F88F20215046013CFFF792FF56
:10100000F4E700BFD93100002DE9F74F0546174638
:101010008846002900F0428118F8011B49B92B7B52
:10102000002B00F03B81284603B0BDE8F04FFFF7EE
:1010300060BF252940F0B780002698F800302D2B9E
:10104000424608F1010823D0302B24D02B2B25D089
:1010500000242A2B02F1010123D13B681A1D1B68D1
:101060003A601C440A4613782E2B26D101324FF0E9
:10107000000A104610F8011BA1F1300CBCF1090F59
:101080001DD80A2303FB0A13A3F1300A0246F0E736
:1010900046F00106D1E746F00206CEE746F0040628
:1010A000CBE711F8013CA3F130000928DBD80A2274
:1010B00002FB0434303C0A46CBE74FF0000A12F83A
:1010C000011B01F0FB0068289046F8D0782909D868
:1010D0006F290CD8632962D022D8252963D05829DA
:1010E00000F0888098F80030002B95D197E7703990
:1010F0000829F7D801A353F821F000BF77120000A8
:10110000E5100000E510000005120000E5100000E9
:10111000E3110000E5100000E5100000F5110000EB
:10112000642901D06929DDD13A68D2F80090111DF7
:1011300089EAE9723960A2EBE9724FF0010B092AE2
:1011400035DCD34538BFD3462CB1B9F1000F01DBF4
:10115000720700D5013CB30702D5BAF1000F03D0E6
:10116000F00701D44CBB0024B9F1000F2DDAC9F10E
:1011700000092D212846FFF7D5FE06F00302022ABA
:1011800004D1BAF1000F01D11CBB0024CDE9004607
:1011900053460A2249462846FFF7DCFEA2E73B6891
:1011A0001A1D19783A602846FFF7BCFE9AE70A2311
:1011B0000BF1010BB2FBF3F2C1E7A345D4D220211E
:1011C0002846013CFFF7AEFECCE77107D5D52B21B1
:1011D000D0E7A345DAD230212846013CFFF7A2FE32
:1011E000D2E73968CDE900460A1D3A6053460A2223
:1011F0000968D0E739680A1D3A60CDE900465346D0
:101200001022F5E73B681A1D3A6016F00106D3F884
:10121000009028D1B9F1000F03D0484601F0CDFB72
:101220000646B44200D904BB09F1FF3919F8011F81
:1012300000293FF457AF2846FFF774FEF6E728462B
:101240000136FFF76FFE19F806100029F7D1A64204
:10125000BFF448AF002C3FF445AF20212846013CA5
:10126000FFF760FEF3E70026EDE720212846013C6A
:10127000FFF758FED5E73B681A1D3A603021284633
:101280001C68FFF74FFE78212846FFF74BFE00222F
:101290000823CDE90032214610227CE703B0BDE8E7
:1012A000F08F00BF2DE9F84FB0F806A04579D2F8CD
:1012B00000B09DF828900AFB05F5043D88460BEB2D
:1012C0000301A94203F1040488BFA5EB030BB4FB9F
:1012D000FAF607460AFB1644C2F800B04EB9AAEB6C
:1012E00004055D4528BF5D46BBF1000F04D1BDE894
:1012F000F88F3F68013EF1E7043408EB06003C44F8
:101300002A46B9F1000F0DD02146ABEB050B01F0D9
:1013100009FBDA452E443F6855464FF0000428BFCC
:101320005D46E1E701462046EFE7FFF796BDF8B5D9
:1013300046790146721E0546002393422D6803D369
:101340000024A64202D8F8BD0133F6E70F6828460C
:10135000FFF7BAFD01343946F3E72DE9F843068A71
:10136000CD1C0746FFF790FD043E35440446B5FB0F
:10137000F6F5F0B14FF48073EDB28380C680013D85
:10138000076081464FF00008A84512D23846FFF7A3
:101390007BFD064648B163790133637108F10108AA
:1013A000C9F8000007608146EEE72046FFF7BFFF5F
:1013B00034462046BDE8F88301210430FFF72FBDF5
:1013C00010B5012104460430FFF735FD10F0FF0F82
:1013D00004D12046BDE81040FFF7A9BF10BD1FB5DE
:1013E00003920022009203AAFFF75CFF05B05DF8AC
:1013F00004FB1FB503920122009203AAFFF752FFDC
:1014000005B05DF804FB836800225A60C3E904223A
:101410009A60DA601A6070471FB503788DF8003063
:101420004368019383688DF80830C368054A0393C5
:10143000054B684653F8213052F82110984705B003
:101440005DF804FB08060020100600201FB5037895
:101450008DF800304368019383688DF80830C368C5
:10146000054A0393054B684653F8213052F8211082
:10147000984705B05DF804FB080600201006002020
:10148000F0B5194B90F800C0DFF86CE043F82C2061
:10149000164B16460A6943F82C204B7F0EF80C3089
:1014A0000C4607460FCC89B06D460FC594E80F0077
:1014B00085E80F001EF80C30CDF810C04BB1002E9F
:1014C0000B4A694608BF3246381D00F0A1FB09B03F
:1014D000F0BD002E074A694608BF324607F10C00EE
:1014E00000F072F9F3E700BF1006002008060020A4
:1014F000191400004D14000018060020014B1B6851
:10150000184700BF1C06002038B50B4B98420C460C
:1015100001D0002038BD0020FFF75AFC074B1D7991
:1015200015B901221C601A710020FFF753FC002D31
:10153000EFD01120EEE700BF002000401C06002085
:10154000034B984201BF034B00221A601A71704787
:10155000002000401C0600201F2886BF054A00F01E
:101560001F004FF0A042012303FA00F0C2F8080563
:10157000704700BF000300501F2886BF054A00F0D7
:101580001F004FF0A042012303FA00F0C2F80C053F
:10159000704700BF00030050114BD3F8183107B556
:1015A000D3B1104B104900221A60C87F1B68019309
:1015B000FF28019B03D08B7F5BB1FFF7DDFF00238A
:1015C0004B770B72D1E90031084803B05DF804EBAA
:1015D0001847FFF7C1FFF2E703B05DF804FB00BF57
:1015E0000030004018310040240600202C06002066
:1015F0000023435082B043580193019B02B07047CF
:101600000A4610B54FF48E71FFF7F2FF136A916826
:10161000C95C136A01331362C0F81C1510BD8B69D5
:101620000A4610B54FF4847123B9FFF7E1FFD0F8F3
:10163000183510BDFFF7DCFF536AD168D0F81805E4
:10164000C854536A01335362F3E700001FB5012306
:101650008DF80030044BCDE90110D3E90012684643
:10166000904705B05DF804FB4806002030B54C48B3
:10167000D0F8043313F4007F85B005464DD0D0F880
:101680002431002B49D04FF49271FFF7B1FF4FF492
:101690000173C0F80833434B93F829200AB901229B
:1016A00042603F4902228DF80020D1F88024C1F821
:1016B000802403929A690292DA6801920022C3E9B7
:1016C00006226846D3E9001290473548D0F81C310D
:1016D0005BB134494A690B6A9A420A464AD991F881
:1016E0002830002B46D1FFF78BFF2D48D0F844312E
:1016F0008BB14FF4A271FFF77BFF2A4B93F829209F
:101700000AB1012202609A692AB10022586AD96896
:101710009A61FFF79BFF05B030BDD5F804335B0736
:10172000D3D5D5F80831002BCFD01E4C1C4821460C
:10173000FFF775FF636AA2699A422346C5D1E26941
:10174000E1684AB12369E3600023606AA261E36152
:101750006362FFF77BFFB8E794F829200AB90122FA
:101760006A600F4A4FF40170C2F808030022586AF9
:101770009A61EEE70A484FF48E71FFF739FF53691B
:10178000002BB2D051690291002391688DF800308E
:10179000019153616846D2E900139847A5E700BF5D
:1017A00000200040480600201F2886BF00F01F00D0
:1017B000044B4FF0A04300F5E070022243F82020D4
:1017C000704700BF000300502DE9F843634B0579D3
:1017D00091462C2202FB0532064692F82A200C463E
:1017E0009846002A40F0B6805D490068FFF78CFEFD
:1017F0000746002840F0B08021684A1C10D01F29FD
:1018000087BF584A01F01F030B464FF0A04201204A
:10181000984003F5E073C2F80805032042F823005E
:101820006068431C0DD01F288BBF00F01F030346C8
:101830004C4A4FF0A04203F5E0734FF0000C42F821
:1018400023C03368A269C3F8242594F814C0627DCC
:10185000BCF1010F4CEA0202C3F86C25C3F8140571
:10186000C3F80C152BD1A168481C0DD01F298BBFC4
:1018700001F01F020A463B484FF0A04002F5E0721B
:101880004FF0000C40F822C0E068421C13D01F2823
:1018900087BF344A00F01F0C84464FF0A0424FF03F
:1018A000010E0EFA0CFE0CF5E07CC2F808E54FF0D4
:1018B000030E42F82CE0C3F80805C3F810152C23DA
:1018C0006B4308EB0302C2F80490226948F8032036
:1018D000B9F1000F2BD03068247F4FF48E71FFF7E1
:1018E00087FE30684FF4A271FFF782FE32681E4B0C
:1018F000C2F80433110B42F30732002AA8BF02F1E9
:1019000060404FEA4413BABF184801F00F0400F5D5
:101910006140DBB2B4BF035580F8003301F01F0112
:10192000012303FA01F15209114B43F822103368E5
:101930000422C3F800252C2303FB05830022C3E9FE
:10194000062283F829205A61012283F82A2038468A
:10195000BDE8F8830827FAE71127F8E748060020D2
:101960006D160000000300508000020014ED00E03E
:1019700000E100E02DE9F04103680479244D0022E4
:10198000C3F800252C2202FB0452014652686AB1BA
:10199000204AC3F8082343F30732C3F3043652093D
:1019A0000120B04020321C4E46F82200D3F80C052E
:1019B000D3F81485D3F80865D3F810754FF0FF32CB
:1019C0009042C3F81425C3F80C25C3F80825C3F8C2
:1019D000102501D0FFF7E8FEB8F1FF3F02D04046E6
:1019E000FFF7E2FE7A1C02D03846FFF7DDFE731CDB
:1019F00002D03046FFF7D8FE0868FFF7A1FD2C2380
:101A000003FB0454002384F82A306360BDE8F081AE
:101A1000480600208402020000E100E02DE9F047C2
:101A2000204F90F804904FF02C0808FB09740546ED
:101A30006669002E34D162610068A16026624FF4AD
:101A40008E7184F82860FFF7D3FD28680123836036
:101A50002146FFF7D5FD6368A0468BB92868D4F806
:101A600014A0236A9A4511D82A68D2F81C31002B99
:101A7000FBD00123D3602C2303FB097300225A619E
:101A80003046BDE8F08794F828303BB9D0F81C31D7
:101A9000002BF8D04146FFF7B3FDE2E70F26EAE757
:101AA0001126EDE7480600200023435082B043583A
:101AB0000193019B02B070471FB501238DF80030E0
:101AC000044BCDE90110D3E900126846904705B0F8
:101AD0005DF804FB740600201F2886BF00F01F007D
:101AE000044B4FF0A04300F5E070022243F82020A1
:101AF000704700BF000300507FB5434AD2F824610D
:101B0000002E60D010464FF49271FFF7CDFF0223F4
:101B10008DF80030D2F88034C2F880340393D2F8C4
:101B20003C350293394BDA6801920022C3E9062260
:101B30006846D3E9001290473348D0F8443173B176
:101B40004FF4A271FFF7B0FF304B9A693AB100220F
:101B5000C3E90622D968D0F83C05FFF7ADFF2A4853
:101B6000D0F82031ABB14FF49071FFF79DFF012306
:101B7000C360264B5A6962B1D0F84C15029100221D
:101B800099688DF8002001915A616846D3E90012E6
:101B900090471D48D0F858319BB14FF4AC71FFF716
:101BA00083FF1A4B5A6962B1D0F84C15029100229A
:101BB00099688DF8002001915A616846D3E90012B6
:101BC000904704B070BDD2F81031002BB4D04FF460
:101BD00088711046FFF768FF0C4BD2F83C059969F5
:101BE0008842A9D1DC69D96864B1D2F8005225F0E5
:101BF0002005C2F800521A699C61DA60DE61FFF7C5
:101C00005BFF99E79C61FAE7002000407406002022
:101C10002DE9F8436A4B06799146242202FB0632ED
:101C2000044692F820200D469846002A40F0C380D2
:101C300064490068FFF768FC0746002840F0BD8053
:101C40002868421C10D01F2887BF5F4A00F01F037E
:101C500003464FF0A0420121994003F5E073C2F81A
:101C60000815032142F8231069684B1C0DD01F2969
:101C70008BBF01F01F030B46534A4FF0A04203F500
:101C8000E0734FF0000C42F823C02368AA69C3F840
:101C9000242595F814C06A7DBCF1010F4CEA0202BC
:101CA000C3F86C25C3F80C05C3F814152BD1A9682B
:101CB000481C0DD01F298BBF01F01F020A46424865
:101CC0004FF0A04002F5E0724FF0000C40F822C047
:101CD000E868421C13D01F2887BF3B4A00F01F0C46
:101CE00084464FF0A0424FF0010E0EFA0CFE0CF5A8
:101CF000E07CC2F808E54FF0030E42F82CE0C3F890
:101D00000805C3F810152423734308EB0302C2F837
:101D100004902A6948F80320B9F1000F3AD02068EE
:101D20002A7F4FF48871FFF7BFFE20684FF490714F
:101D3000FFF7BAFE20684FF49271FFF7B5FE2068F6
:101D40004FF4A271FFF7B0FE20684FF4AC71FFF7BB
:101D5000ABFE23681D49C3F80413190B43F3073383
:101D6000002BAEBF03F1604001F00F0518484FEAA9
:101D70004212A8BF00F56140D2B2B4BF425580F80C
:101D8000002301F01F01012202FA01F15B09114A4F
:101D900042F8231023680822C3F80025242303FBFC
:101DA00006830022C3E906225A61012283F820201B
:101DB0003846BDE8F8830827FAE71127F8E700BF9F
:101DC00074060020F91A00000003005010034200BE
:101DD00014ED00E000E100E02DE9F0412E4E057920
:101DE000242303FB056304465B6800686BB12B4B3F
:101DF000C0F8083340F30733C0F304315B09012214
:101E00008A402033264941F82320D0F800320122AD
:101E100023F02003C0F800324FF4AC714260FFF7AA
:101E200043FE2368DA60D3F85821002AFBD0002251
:101E3000C3F80025D3F80C05D3F81485D3F808159A
:101E4000D3F810754FF0FF329042C3F80C25C3F859
:101E50001425C3F80825C3F8102501D0FFF73CFE70
:101E6000B8F1FF3F02D04046FFF736FE7A1C02D0A1
:101E70003846FFF731FE4B1C02D00846FFF72CFE18
:101E80002068FFF75DFB242303FB0565002385F82D
:101E900020306B60BDE8F081740600201003420022
:101EA00000E100E001F06043B3F1005F2DE9F04193
:101EB000064638D11E4B0779242505FB0735984681
:101EC0006C69002C31D16A610068A9604FF490718F
:101ED000FFF7EAFD4FF4AC713068FFF7E5FD3368BA
:101EE0006A69A968C3F84415C3F8482501229A60B5
:101EF0006A68AAB9D3F82021D3F858411AB9002C3E
:101F0000F8D00F2407E0002CFBD10122DA60D3F8CF
:101F10005821002AFBD0242303FB078700237B6181
:101F20002046BDE8F0811024FAE71124F8E700BF4D
:101F300074060020024B800143F00103184700BFE4
:101F40002032000010B504464FF47A70FFF7F2FF1C
:101F5000013CF9D110BD00001F2886BF054A00F0E2
:101F60001F004FF0A042012303FA00F0C2F8080559
:101F7000704700BF000300501F2886BF054A00F0CD
:101F80001F004FF0A042012303FA00F0C2F80C0535
:101F9000704700BF000300501F288ABF054B4FF059
:101FA000A04300F01F00D3F8103523FA00F000F032
:101FB000010070470003005008B50A4B0022C3F827
:101FC00020270322C3F818272620FFF7C5FF1E206D
:101FD000FFF7B8FF2620FFF7CFFFBDE808400A2033
:101FE000FFF7B0BF0003005010B52620FFF7B4FF85
:101FF000F04C3220FFF79EFF0323C4F8203728203F
:10200000FFF7BAFF2620FFF7B7FF3220FFF792FF56
:102010000023C4F820372620FFF79EFF3220FFF769
:1020200089FF2620FFF7A8FF3220FFF783FF282033
:10203000FFF7B2FF04462620FFF78EFF3220FFF79E
:1020400079FF2620FFF798FF3220FFF773FF631E0A
:102050005C424FF028005C41FFF79EFF64000128BE
:102060004FF0260008BF0134FFF776FF3220FFF75C
:1020700061FF2620FFF780FF3220FFF75BFF28205B
:10208000FFF78AFF640001284FF0260008BF0134E3
:10209000FFF762FF3220FFF74DFF2620FFF76CFFAE
:1020A0003220FFF747FF2820FFF776FF6400012862
:1020B0004FF0260008BF0134FFF74EFF3220FFF734
:1020C00039FF2620FFF758FF3220FFF733FF282083
:1020D000FFF762FF640001284FF0260008BF0134BB
:1020E000FFF73AFF3220FFF725FF2620FFF744FFD6
:1020F0003220FFF71FFF2820FFF74EFF6400012862
:102100004FF0260008BF0134FFF726FF3220FFF70B
:1021100011FF2620FFF730FF3220FFF70BFF2820AA
:10212000FFF73AFF640001284FF0260008BF013492
:10213000FFF712FF3220FFF7FDFE2620FFF71CFFFE
:102140003220FFF7F7FE2820FFF726FF6400012862
:102150004FF0260008BF0134FFF7FEFE3220FFF7E4
:10216000E9FE2620FFF708FF3220FFF7E3FE2820D4
:10217000FFF712FF640001284FF0260008BF01346A
:10218000FFF7EAFE3220FFF7D5FE2620FFF7F4FE28
:102190003220FFF7CFFE2820FFF7FEFE6400012863
:1021A0004FF0260008BF0134FFF7D6FE3220FFF7BC
:1021B000C1FE2620FFF7E0FE3220FFF7BBFE2820FD
:1021C000FFF7EAFE640001284FF0260008BF013443
:1021D000FFF7C2FE3220FFF7ADFE2620FFF7CCFE50
:1021E0003220FFF7A7FE2820FFF7D6FE6400012863
:1021F0004FF0260008BF0134FFF7AEFE3220FFF794
:1022000099FE2620FFF7B8FE3220FFF793FE282024
:10221000FFF7C2FE640001284FF0260008BF01341A
:10222000FFF79AFE3220FFF785FE2620FFF7A4FE77
:102230003220FFF77FFE2820FFF7AEFE6400012862
:102240004FF0260008BF0134FFF786FE3220FFF76B
:1022500071FE2620FFF790FE3220FFF76BFE28204C
:10226000FFF79AFE640001284FF0260008BF0134F2
:10227000FFF772FE3220FFF75DFE2620FFF77CFE9F
:102280003220FFF757FE2820FFF786FE6400012862
:102290004FF0260008BF0134FFF75EFE3220FFF743
:1022A00049FE2620FFF768FE3220FFF743FE282074
:1022B000FFF772FE640001284FF0260008BF0134CA
:1022C000FFF74AFE3220FFF735FE2620FFF754FEC7
:1022D0003220FFF72FFE2820FFF75EFE6400012862
:1022E0004FF0260008BF0134FFF736FE3220FFF71B
:1022F00021FE2620FFF740FE3220FFF71BFE28209C
:10230000FFF74AFE640001284FF0260008BF0134A1
:10231000FFF722FE3220FFF70DFE2620FFF72CFEEE
:102320003220FFF707FE2820FFF736FE6400012861
:102330004FF0260008BF0134FFF70EFE3220FFF7F2
:10234000F9FD2620FFF718FE3220FFF7F3FD2820C5
:10235000FFF722FE640001284FF0260008BF013479
:10236000FFF7FAFD3220FFF7E5FD2620FFF704FE18
:102370003220FFF7DFFD2820FFF70EFE6400012862
:102380004FF0260008BF0134FFF7E6FD3220FFF7CB
:10239000D1FD2620FFF7F0FD3220FFF7CBFD2820EE
:1023A0006100FFF7F9FD0128BDE81040024808BFB1
:1023B000013103E000030050FD31000000F0F4B8EB
:1023C000002108B50846FEF79DF908B1FEF7A8FC04
:1023D000FEF7D2F80A4800F0E7F86420FFF7B2FDF4
:1023E000FFF7EAFD2820FFF7D7FD20B9FFF7FCFD36
:1023F0006420FFF7A7FDFEF7DFF90028FBD1F1E726
:10240000023200000369C1688B429DBF8268D21806
:1024100002F1FF3203F1FF3394BF501A581A70478C
:102420002DE9F843D0E902940546A9EB0408406879
:10243000904520440F46144404D900F073FAEC6030
:10244000BDE8F8834246A4EB090400F06BFA686823
:10245000224607EB0801F0E72DE9F843C568064678
:10246000894617464FF000083469B3687068A54282
:1024700028BFE418013C621B5C1BBC4228BF3C46E1
:10248000944228BF144649462844224600F04AFA9E
:10249000B3682544AB4208BF00253F1BA044A144BC
:1024A000F560E1D14046BDE8F883000010B5114C5D
:1024B000114AA2610223C4E90433104BE361A26410
:1024C0004FF400730E4A0F492362E2640023102286
:1024D000E01DA3626362E362A3656365E365226551
:1024E00000F049FA0849204600F045FA2023A3717C
:1024F00010BD00BF980600202632000020070020F3
:10250000100700202F32000033320000F8B5184CBD
:10251000182300FB033503FB00402544C46A012C4B
:102520000F4616460FD0022C1AD0F4B92846FFF7F2
:1025300069FF864205D8324639462846FFF770FFC4
:1025400034462046F8BD2846FFF75CFF86423446F5
:1025500028BF0446224639462846FFF761FFF0E7C8
:102560002846BDE8F840FFF777BF0024E9E700BF41
:102570009806002070B50B4B1B7804460D46164696
:102580000BB9FFF793FF0020FEF722FC32462946E5
:102590002046FFF7BBFF04460020FEF71BFC204649
:1025A00070BD00BF980600200FB410B5ADF5027DD8
:1025B00084AB4FF4007153F8042B019302A800F090
:1025C000A3F9B0F5007F04460CDD4FF4007202A9B8
:1025D0000020FFF7CFFF20460DF5027DBDE810403B
:1025E00004B070470028F6DD0246F0E7054B1B6893
:1025F000082B01BF044B1868B0FA80F0400918BFDF
:1026000000207047300100103401001008B54FF071
:1026100080430022C3F80C21C3F81021C3F83825E9
:102620004FF0805203F54043D2F80414C3F820154C
:10263000D2F80814C3F82415D2F80C14C3F82815DE
:10264000D2F81014C3F82C15D2F81414C3F83015AE
:10265000D2F81814C3F83415D2F81C14C3F8401576
:10266000D2F82014C3F84415D2F82414C3F848153E
:10267000D2F82814C3F84C15D2F82C14C3F850150E
:10268000D2F83014C3F85415D2F83414C3F86015D6
:10269000D2F83814C3F86415D2F83C14C3F868159E
:1026A000D2F84014C3F86C15D2F84424C3F870254E
:1026B000FFF79CFF10B1384B384A1A60FFF796FFBE
:1026C00018B1374BFB22C3F81825FFF78FFF48B12D
:1026D0003449354B0A681B6822F00F0203F00F03E0
:1026E00013430B60FFF782FF18B1304B4FF40072B9
:1026F0001A604FF08043D3F80024D20744BF6FF034
:102700000102C3F800242A4AD2F8883043F4700347
:10271000C2F88830BFF34F8FBFF36F8F4FF0102395
:10272000D3F80022002A03DBD3F80432002B2FDA7F
:10273000204B0122C3F80425D3F80024002AFBD043
:102740004FF010221221C2F80012D3F80024002A00
:10275000FBD04FF010231222C3F80422154B1A4667
:10276000D3F800140029FBD00021C3F80415D2F8D7
:102770000034002BFBD0BFF34F8F0D490E4BCA68BE
:1027800002F4E0621343CB60BFF34F8F00BFFDE75D
:102790000A4B0B4A1A6008BD8C5600404881030062
:1027A00000F00040E40E0040580200104096024045
:1027B00000ED00E000E001400400FA051C000020EC
:1027C0000090D0037F2805D8034B185C034B5B5C5B
:1027D000184070470020704748320000C83200009F
:1027E000A0F16103192B98BF20387047A0F1410375
:1027F000192B98BF203070477F2805D8034B185CF1
:10280000034B5B5C18407047002070474832000063
:10281000C8320000A0F16103192B98BF203870471F
:10282000A0F14103192B98BF203070477F299ABF30
:10283000017001206FF02E0070475AB10A787F2A8C
:102840000AD800B10260002119605960501A18BFFF
:1028500001207047002070476FF02E00704738B598
:1028600004460846A26842B1236861685D1C8D4237
:1028700008BF00208B4208D2D054E3682BB12168F6
:102880006268914201D22146984723680133236050
:1028900038BD70B54C1E09D41646C5B2294630461F
:1028A000FFF7DDFF013CB4F1FF3FF7D170BD10F041
:1028B000100F08D108B510F4007F14BF302020207D
:1028C000FFF7E7FF08BD704708B5034B5B689B68DF
:1028D0001B68984708BD00BF2000002008B50921EB
:1028E000FFF7F2FF08BD037853B159B10144034625
:1028F00013F8012F12B18B42FAD10B46181A704708
:102900000346FBE70346F9E710B584B00C461146D1
:1029100002900022039201941A46684600F07EF865
:1029200004B010BD844640EA010313F0030F18D130
:102930008446202A0BD32DE9F007B1E8F807A0E878
:10294000F807A2F12002202AF7D2BDE8F007042AF6
:1029500007D351F8043B40F8043BA2F10402042AD7
:10296000F7D2002A05D011F8013B00F8013B013AEB
:10297000F9D160467047024610F0030F16D111F0EE
:10298000030F13D12DE9F0004FF001374FF08033E2
:1029900051F8044BA4EB070525EA04051D4002D1BC
:1029A00042F8044BF4E7A1F10401F0BC11F8013B3B
:1029B00002F8013B002BF9D1704700F1010110F042
:1029C000030F11D010F8012B002A23D010F0030FB1
:1029D0000AD010F8012B002A1CD010F0030F03D0EE
:1029E00010F8012B002A15D02DE970004FF00132AC
:1029F0004FF0803350F8044BA4EB020525EA0405A0
:102A00001D4000D1F6E7A0F1040070BC10F8012BC6
:102A1000002AFBD1A0EB0100704700002DE9F04F28
:102A200089B007460392002303600C4614F8011B8B
:102A3000002900F0FA82DFF814B5E9E2002507E08A
:102A40005E2868D145F4805501E045F040051C46FC
:102A5000234613F8010B3028F2D81F2837D9A0F1EC
:102A60002002102A33D801A151F822F04B2A00008D
:102A7000CF2A0000CF2A0000B12A0000CF2A000090
:102A8000CF2A0000CF2A0000B72A0000CF2A00007A
:102A9000CF2A0000CF2A0000BD2A0000CF2A000064
:102AA000C32A0000CF2A0000CF2A0000C92A000054
:102AB00045F08005CBE745F40045C8E745F0200523
:102AC000C5E745F01005C2E745F40075BFE72A28C1
:102AD00021D1039A111D0391D2F800A0BAF1000F81
:102AE000BCBFCAF1000A45F010051878A31C2AEAF9
:102AF000EA7A2E2826D00021742847D07A2845D09B
:102B00006C2800F0A8804C2800F0AB80682800F00A
:102B1000B8801C463DE0A0F13002D2B2092A88BF3D
:102B20004FF0000AE3D84FF0000A0AEB8A0A303867
:102B300000EB4A0A13F8010BA0F13002D2B2092AC5
:102B4000F3D9D4E718782A280AD1039A111D0391E2
:102B50001168587802330029CEDB45F48075CBE745
:102B60000133A0F13002D2B2092A88BF0021F4D883
:102B7000002101EB8101303800EB410113F8010B1A
:102B8000A0F13002D2B2092AF3D9E4E71C4614F8C6
:102B9000010B002800F05582A0F12503DBB2532B76
:102BA00062D8A0F12503532B5ED8DFE813F076003E
:102BB0005D005D005D005D005D005D005D005D002D
:102BC0005D005D005D005D005D005D005D005D001D
:102BD0005D005D005D005D005D005D005D005D000D
:102BE0005D005D005D005D005D005D005D005D00FD
:102BF0005D005D005D005D005D005D005D005D00ED
:102C00005D005D005D005D005D005D005D005D00DC
:102C10005D005D00EB005D005D005D005D005D003E
:102C20005D005D005D005D005D007B0020015D00DA
:102C30005D005D005D0020015D005D005D005D00E8
:102C400095000E01D1005D005D00A6005D00190138
:102C50005D005D00ED001C4614F8010B45F0010518
:102C600097E745F001051C46B44B1E68002E00F0A6
:102C7000CC8103AB0193009153462A463946B047B5
:102C8000C3E11878682803D05C1C45F0040580E790
:102C900045F008059C1C58787BE725213846FFF74E
:102CA000DEFDB2E1039B1A1D03921E780AF1FF3A82
:102CB0003A4651462846FFF7FAFD31463846FFF7B7
:102CC000CEFDA94619F0100F00F09F813A465146FB
:102CD0002020FFF7DEFD98E115F0080F06D03A68D6
:102CE000039B191D03911B681A708EE1039B1A1D2B
:102CF00003921B683A681A6087E1039B1A1D0392CE
:102D0000D3F800808E4BB8F1000F08BF98464646B6
:102D100025F4007915F4807F15D04046FFF7E3FDD8
:102D20000546AAEB050A3A4651464846FFF7BFFD5D
:102D3000002DC7D0454416F8011B3846FFF78FFD1C
:102D4000B542F8D1BEE74046FFF737FE0546E8E753
:102D5000039B1A1D03921B6815F0800F0CBF002601
:102D6000232645F4807508211A46002B00F029819E
:102D700005AB4FF0000805F4005CA64660468C46A3
:102D80000146D1E045F4005515F0800F1BD043F209
:102D9000780643F25803782818BF1E4615F4807F42
:102DA00001D025F4007515F4804F32D0039B1A1D15
:102DB00003921B6815F0040F1FD01BB2002B20DA02
:102DC0005B422D262DE00026E8E715F0800F0CBFB2
:102DD0000026302615F4807FE5D025F40075E2E763
:102DE00015F4807F07D025F400750026DBE745F455
:102DF00080450026D7E70026D5E715F0080FDDD07F
:102E0000DBB215F0200F60D115F0400F18BF20265F
:102E100007E0039B1A1D03921B6815F0040F4FD0A7
:102E20009BB215F4807F14BF25F40075012158383A
:102E3000202800F2AE8001A252F820F0692D000097
:102E4000932F0000932F0000932F0000932F00007A
:102E5000932F0000932F0000932F0000932F00006A
:102E6000932F0000932F0000932F0000F72E0000F7
:102E7000932F0000932F0000932F0000932F00004A
:102E8000F72E0000932F0000932F0000932F0000D7
:102E9000932F0000932F0000CF2E0000692D00001B
:102EA000932F0000932F0000932F0000932F00001A
:102EB000F72E0000932F0000932F0000692D0000D3
:102EC00015F0080FADD0DBB2ABE72B26A9E71A4609
:102ED0004FF00008002B5ED005A84FF0000803F06B
:102EE0000703303300F8013B08F10108D20813460C
:102EF000002AF4D14FE018464FF00008002B4AD0CA
:102F00004FF0000805F4004E4FF02C0973468E4632
:102F100019462FE002F00F000A4C205C03F8010B69
:102F200008F10108120906D00029F3D002F00F00C1
:102F3000054C205CF2E7744661462CE02009002035
:102F40009C3400007C3400008C340000CDCCCCCC10
:102F500008AB03EB080CABFB0032D20802EB820398
:102F6000A0EB430330330CF80C3C08F101080928AE
:102F70000DD910460029EBD008F00303032BE7D14D
:102F800008AB434403F80C9C08F10108E0E77146E4
:102F900001E04FF00008A1EB080121EAE179AAEB7A
:102FA000090AAAEB080AFF2E0ED9AAF1020AC6F3F3
:102FB00007213846FFF753FCF1B23846FFF74FFCC4
:102FC00004E04FF00008E6E7002E3DD13A465146B6
:102FD0002846FFF76CFC3A4649463020FFF759FC7B
:102FE000B8F1000F0EDD0DF1140908F1FF38C844E7
:102FF00098F8001046463846FFF731FCC14508F105
:10300000FF38F5D115F0100F09D114F8011B61B18B
:1030100025293FF413AD3846FFF721FCF5E73A4682
:1030200051462020FFF735FCEFE7BB682BB13A682B
:1030300079688A423CBF00219954386809B0BDE8DC
:10304000F08F4FF0FF30F9E70AF1FF3AB4E700BF25
:10305000E931000000000000ED3100000000000038
:10306000F231000000000000F73100000000000015
:08307000EA3000000000030338
:10307800BC30000000000000C83000001400002030
:103088007800002040010020480100208000002036
:04309800180000001C
:10309C00FFFFFFFFFFFFFFFFFFFFFFFFFFFFFFFF34
:1030AC0000000000000000000000D6010601000036
:1030BC0095040000490500009304000075617274CA
:1030CC005F6C6F675F6261636B656E640042616326
:1030DC006B656E647320666C7573686564006170F3
:1030EC00700000006C0500207F000000EC05002043
:1030FC001B5B306D002573001B5B313B33316D0066
:10310C0025734C6F67732064726F70706564202830
:10311C0025642925730D0A003C25733E2025733A3E
:10312C002000202530327800202020007C002563F0
:10313C00001B5B313B33306D001B5B313B33326D1D
:10314C00001B5B313B33336D001B5B313B33346D08
:10315C00001B5B313B33356D001B5B313B33366DF4
:10316C00001B5B313B33376D007761726E696E67A4
:10317C0000696E666F00646562756700FC30000064
:10318C003D31000004310000453100004D3100009C
:10319C00553100005D310000653100006D310000DB
:1031AC0000000000C6310000753100007D310000C8
:1031BC0082310000466174616C206572726F72001E
:1031CC0053797374656D2072657365740030313298
:1031DC0033343536373839414243444546505253DF
:1031EC00005350494D0055415254005541525445DD
:1031FC000025780D0A004641544653206578616DD0
:10320C00706C6520737461727465642E0D0A000015
:10321C00000000000338FDD870475465726D696E6C
:10322C00616C00525454005345474745520000000E
:10323C0043000000504F534958000000202020202C
:10324C00202020202068282828282020202020200A
:10325C00202020202020202020202020481010106A
:10326C001010101010101010101010108484848482
:10327C008484848484841010101010101081818137
:10328C0081818101010101010101010101010101A2
:10329C000101010101010110101010101082828235
:1032AC008282820202020202020202020202020272
:1032BC00020202020202021010101020000703206A
:1032CC000417020108571040800000003C32000037
:1032DC00403300005434000053756E004D6F6E0087
:1032EC005475650057656400546875004672690032
:1032FC0053617400000000004A616E004665620074
:10330C004D617200417072004D6179004A756E001A
:10331C004A756C0041756700536570004F6374000B
:10332C004E6F76004465630000000000414D005074
:10333C004D00000078340000743400007434000038
:10334C0074340000743400007434000074340000D1
:10335C00743400007434000074340000FFFFFFFF6D
:10336C00FFFFFFFFFFFFFFFFFFFF0000B433000074
:10337C00E4320000F0330000043300003833000066
:10338C009833000048340000A4330000256D2F252D
:10339C00642F257900000000256120256220256519
:1033AC00202554202559000053756E646179004D19
:1033BC006F6E64617900547565736461790057654B
:1033CC00646E6573646179005468757273646179B5
:1033DC000046726964617900536174757264617935
:1033EC00000000004A616E75617279004665627278
:1033FC0075617279004D6172636800417072696C1D
:10340C00004D6179004A756E65004A756C79004112
:10341C0075677573740053657074656D62657200C1
:10342C004F63746F626572004E6F76656D62657284
:10343C0000446563656D62657200000025483A259D
:10344C004D3A255300000000C5270000E12700007D
:10345C00ED270000F92700001528000021280000A6
:10346C002D2800003B280000000000002E0000006A
:10347C0030313233343536373839616263646566DE
:10348C00303132333435363738394142434445468E
:07349C00286E756C6C29001D
:1034A4000000000000200040000000000020004058
:1034B4000000000000000000FF0000000090D003A6
:1034C400D8320000D8320000D8320000D8320000D0
:0434D400D8320000EA
:040000030000037581
:00000001FF
